:020000040800F2
:1000000010B5054C237833B9044B13B10448AFF352
:1000100000800123237010BD60000020000000005C
:100020008C00000808B5034B1BB103490348AFF32C
:10003000008008BD00000000640000208C00000863
:100040003B3E0B3E103E253E333E033E063E143EF5
:100050000E3E0D3E243E123E273E023E183E093E15
:100060000A3E0000000000203B3E0B3E103E253EB5
:10007000333E033E063E143E0E3E0D3E243E123EEF
:10008000273E023E183E093E0A3E000025000008B9
:04009000F8B500BF00
:04009400F8B500BFFC
:1000A0000000000000000000000000000000000050
:1000B0000000000000000000000000000000000040
:1000C0000000000000000000000000000000000030
:1000D0000000000000000000000000000000000020
:1000E0000000000000000000000000000000000010
:1000F0000000000000000000000000000000000000
:0400000508000000EF
:00000001FF
